{
  "contractName": "CartProductProducts",
  "abi": [
    {
      "anonymous": false,
      "inputs": [
        {
          "indexed": true,
          "internalType": "address",
          "name": "previousOwner",
          "type": "address"
        },
        {
          "indexed": true,
          "internalType": "address",
          "name": "newOwner",
          "type": "address"
        }
      ],
      "name": "OwnershipTransferred",
      "type": "event"
    },
    {
      "inputs": [
        {
          "internalType": "uint256",
          "name": "",
          "type": "uint256"
        }
      ],
      "name": "cartProducts",
      "outputs": [
        {
          "internalType": "uint256",
          "name": "id_cart",
          "type": "uint256"
        },
        {
          "internalType": "uint256",
          "name": "id_product",
          "type": "uint256"
        },
        {
          "internalType": "string",
          "name": "combination",
          "type": "string"
        },
        {
          "internalType": "uint256",
          "name": "created_at",
          "type": "uint256"
        },
        {
          "internalType": "uint256",
          "name": "updated_at",
          "type": "uint256"
        }
      ],
      "stateMutability": "view",
      "type": "function"
    },
    {
      "inputs": [],
      "name": "isOwner",
      "outputs": [
        {
          "internalType": "bool",
          "name": "",
          "type": "bool"
        }
      ],
      "stateMutability": "view",
      "type": "function"
    },
    {
      "inputs": [],
      "name": "owner",
      "outputs": [
        {
          "internalType": "address",
          "name": "",
          "type": "address"
        }
      ],
      "stateMutability": "view",
      "type": "function"
    },
    {
      "inputs": [],
      "name": "renounceOwnership",
      "outputs": [],
      "stateMutability": "nonpayable",
      "type": "function"
    },
    {
      "inputs": [
        {
          "internalType": "address",
          "name": "newOwner",
          "type": "address"
        }
      ],
      "name": "transferOwnership",
      "outputs": [],
      "stateMutability": "nonpayable",
      "type": "function"
    },
    {
      "inputs": [
        {
          "internalType": "uint256",
          "name": "_id_shop",
          "type": "uint256"
        },
        {
          "internalType": "uint256",
          "name": "_id_product",
          "type": "uint256"
        },
        {
          "internalType": "string",
          "name": "_combination",
          "type": "string"
        }
      ],
      "name": "createCartProduct",
      "outputs": [],
      "stateMutability": "nonpayable",
      "type": "function"
    },
    {
      "inputs": [
        {
          "internalType": "uint256",
          "name": "_id",
          "type": "uint256"
        }
      ],
      "name": "getCartProductProductsByCart",
      "outputs": [
        {
          "components": [
            {
              "internalType": "uint256",
              "name": "id_cart",
              "type": "uint256"
            },
            {
              "internalType": "uint256",
              "name": "id_product",
              "type": "uint256"
            },
            {
              "internalType": "string",
              "name": "combination",
              "type": "string"
            },
            {
              "internalType": "uint256",
              "name": "created_at",
              "type": "uint256"
            },
            {
              "internalType": "uint256",
              "name": "updated_at",
              "type": "uint256"
            }
          ],
          "internalType": "struct CartProductProducts.CartProduct[]",
          "name": "",
          "type": "tuple[]"
        }
      ],
      "stateMutability": "view",
      "type": "function"
    }
  ],
  "bytecode": "0x608060405234801561001057600080fd5b50336000806101000a81548173ffffffffffffffffffffffffffffffffffffffff021916908373ffffffffffffffffffffffffffffffffffffffff16021790555060008054906101000a900473ffffffffffffffffffffffffffffffffffffffff1673ffffffffffffffffffffffffffffffffffffffff16600073ffffffffffffffffffffffffffffffffffffffff167f8be0079c531659141344cd1fd0a4f28419497f9722a3daafe3b4186f6b6457e060405160405180910390a3610eda806100db6000396000f3fe608060405234801561001057600080fd5b506004361061007d5760003560e01c80638f32d59b1161005b5780638f32d59b146100da578063917611a1146100f8578063c9bc33cf14610114578063f2fde38b146101485761007d565b80636d21d13e14610082578063715018a6146100b25780638da5cb5b146100bc575b600080fd5b61009c6004803603810190610097919061082d565b610164565b6040516100a99190610a3a565b60405180910390f35b6100ba610332565b005b6100c4610401565b6040516100d19190610a9d565b60405180910390f35b6100e261042a565b6040516100ef9190610ad3565b60405180910390f35b610112600480360381019061010d9190610c23565b610481565b005b61012e6004803603810190610129919061082d565b610530565b60405161013f959493929190610ceb565b60405180910390f35b610162600480360381019061015d9190610d71565b6105fe565b005b6060600060018054905067ffffffffffffffff81111561018757610186610af8565b5b6040519080825280602002602001820160405280156101c057816020015b6101ad610711565b8152602001906001900390816101a55790505b5090506000805b60018054905081101561032757600181815481106101e8576101e7610d9e565b5b9060005260206000209060050201600001548503610314576001818154811061021457610213610d9e565b5b90600052602060002090600502016040518060a0016040529081600082015481526020016001820154815260200160028201805461025190610dfc565b80601f016020809104026020016040519081016040528092919081815260200182805461027d90610dfc565b80156102ca5780601f1061029f576101008083540402835291602001916102ca565b820191906000526020600020905b8154815290600101906020018083116102ad57829003601f168201915b50505050508152602001600382015481526020016004820154815250508383815181106102fa576102f9610d9e565b5b6020026020010181905250818061031090610e5c565b9250505b808061031f90610e5c565b9150506101c7565b508192505050919050565b61033a61042a565b61034357600080fd5b600073ffffffffffffffffffffffffffffffffffffffff1660008054906101000a900473ffffffffffffffffffffffffffffffffffffffff1673ffffffffffffffffffffffffffffffffffffffff167f8be0079c531659141344cd1fd0a4f28419497f9722a3daafe3b4186f6b6457e060405160405180910390a360008060006101000a81548173ffffffffffffffffffffffffffffffffffffffff021916908373ffffffffffffffffffffffffffffffffffffffff160217905550565b60008060009054906101000a900473ffffffffffffffffffffffffffffffffffffffff16905090565b60008060009054906101000a900473ffffffffffffffffffffffffffffffffffffffff1673ffffffffffffffffffffffffffffffffffffffff163373ffffffffffffffffffffffffffffffffffffffff1614905090565b61048961042a565b61049257600080fd5b60016040518060a0016040528085815260200184815260200183815260200142815260200142815250908060018154018082558091505060019003906000526020600020906005020160009091909190915060008201518160000155602082015181600101556040820151816002019080519060200190610514929190610740565b5060608201518160030155608082015181600401555050505050565b6001818154811061054057600080fd5b906000526020600020906005020160009150905080600001549080600101549080600201805461056f90610dfc565b80601f016020809104026020016040519081016040528092919081815260200182805461059b90610dfc565b80156105e85780601f106105bd576101008083540402835291602001916105e8565b820191906000526020600020905b8154815290600101906020018083116105cb57829003601f168201915b5050505050908060030154908060040154905085565b61060661042a565b61060f57600080fd5b6106188161061b565b50565b600073ffffffffffffffffffffffffffffffffffffffff168173ffffffffffffffffffffffffffffffffffffffff160361065457600080fd5b8073ffffffffffffffffffffffffffffffffffffffff1660008054906101000a900473ffffffffffffffffffffffffffffffffffffffff1673ffffffffffffffffffffffffffffffffffffffff167f8be0079c531659141344cd1fd0a4f28419497f9722a3daafe3b4186f6b6457e060405160405180910390a3806000806101000a81548173ffffffffffffffffffffffffffffffffffffffff021916908373ffffffffffffffffffffffffffffffffffffffff16021790555050565b6040518060a0016040528060008152602001600081526020016060815260200160008152602001600081525090565b82805461074c90610dfc565b90600052602060002090601f01602090048101928261076e57600085556107b5565b82601f1061078757805160ff19168380011785556107b5565b828001600101855582156107b5579182015b828111156107b4578251825591602001919060010190610799565b5b5090506107c291906107c6565b5090565b5b808211156107df5760008160009055506001016107c7565b5090565b6000604051905090565b600080fd5b600080fd5b6000819050919050565b61080a816107f7565b811461081557600080fd5b50565b60008135905061082781610801565b92915050565b600060208284031215610843576108426107ed565b5b600061085184828501610818565b91505092915050565b600081519050919050565b600082825260208201905092915050565b6000819050602082019050919050565b61088f816107f7565b82525050565b600081519050919050565b600082825260208201905092915050565b60005b838110156108cf5780820151818401526020810190506108b4565b838111156108de576000848401525b50505050565b6000601f19601f8301169050919050565b600061090082610895565b61090a81856108a0565b935061091a8185602086016108b1565b610923816108e4565b840191505092915050565b600060a0830160008301516109466000860182610886565b5060208301516109596020860182610886565b506040830151848203604086015261097182826108f5565b91505060608301516109866060860182610886565b5060808301516109996080860182610886565b508091505092915050565b60006109b0838361092e565b905092915050565b6000602082019050919050565b60006109d08261085a565b6109da8185610865565b9350836020820285016109ec85610876565b8060005b85811015610a285784840389528151610a0985826109a4565b9450610a14836109b8565b925060208a019950506001810190506109f0565b50829750879550505050505092915050565b60006020820190508181036000830152610a5481846109c5565b905092915050565b600073ffffffffffffffffffffffffffffffffffffffff82169050919050565b6000610a8782610a5c565b9050919050565b610a9781610a7c565b82525050565b6000602082019050610ab26000830184610a8e565b92915050565b60008115159050919050565b610acd81610ab8565b82525050565b6000602082019050610ae86000830184610ac4565b92915050565b600080fd5b600080fd5b7f4e487b7100000000000000000000000000000000000000000000000000000000600052604160045260246000fd5b610b30826108e4565b810181811067ffffffffffffffff82111715610b4f57610b4e610af8565b5b80604052505050565b6000610b626107e3565b9050610b6e8282610b27565b919050565b600067ffffffffffffffff821115610b8e57610b8d610af8565b5b610b97826108e4565b9050602081019050919050565b82818337600083830152505050565b6000610bc6610bc184610b73565b610b58565b905082815260208101848484011115610be257610be1610af3565b5b610bed848285610ba4565b509392505050565b600082601f830112610c0a57610c09610aee565b5b8135610c1a848260208601610bb3565b91505092915050565b600080600060608486031215610c3c57610c3b6107ed565b5b6000610c4a86828701610818565b9350506020610c5b86828701610818565b925050604084013567ffffffffffffffff811115610c7c57610c7b6107f2565b5b610c8886828701610bf5565b9150509250925092565b610c9b816107f7565b82525050565b600082825260208201905092915050565b6000610cbd82610895565b610cc78185610ca1565b9350610cd78185602086016108b1565b610ce0816108e4565b840191505092915050565b600060a082019050610d006000830188610c92565b610d0d6020830187610c92565b8181036040830152610d1f8186610cb2565b9050610d2e6060830185610c92565b610d3b6080830184610c92565b9695505050505050565b610d4e81610a7c565b8114610d5957600080fd5b50565b600081359050610d6b81610d45565b92915050565b600060208284031215610d8757610d866107ed565b5b6000610d9584828501610d5c565b91505092915050565b7f4e487b7100000000000000000000000000000000000000000000000000000000600052603260045260246000fd5b7f4e487b7100000000000000000000000000000000000000000000000000000000600052602260045260246000fd5b60006002820490506001821680610e1457607f821691505b602082108103610e2757610e26610dcd565b5b50919050565b7f4e487b7100000000000000000000000000000000000000000000000000000000600052601160045260246000fd5b6000610e67826107f7565b91507fffffffffffffffffffffffffffffffffffffffffffffffffffffffffffffffff8203610e9957610e98610e2d565b5b60018201905091905056fea264697066735822122093ec2c1effacfff1a8cf9739b53b93d1cbb518b130b9c403d7da7bbd5e44620664736f6c634300080d0033",
  "immutableReferences": {},
  "source": "pragma solidity ^0.8.0;\n\nimport \"./ownable.sol\";\n\ncontract CartProductProducts is Ownable {\n  struct CartProduct {\n    uint256 id_cart;\n    uint256 id_product;\n    string combination;\n    uint256 created_at;\n    uint256 updated_at;\n  }\n\n  CartProduct[] public cartProducts;\n\n  function createCartProduct(uint256 _id_shop, uint256 _id_product, string memory _combination) external onlyOwner {\n    cartProducts.push(CartProduct(_id_shop, _id_product, _combination, block.timestamp, block.timestamp));\n  }\n  \n\n  function getCartProductProductsByCart(uint256 _id) public view returns(CartProduct[] memory) {\n    CartProduct[] memory result = new CartProduct[](cartProducts.length);\n    uint counter = 0;\n    for (uint i = 0; i < cartProducts.length; i++) {\n      if (_id == cartProducts[i].id_cart) {\n        result[counter] = cartProducts[i];\n        counter++;\n      }\n    }\n\n    return result;\n  }\n\n  \n}",
  "sourcePath": "/home/hayek/proyectos_personales/marketplace_solidity/src/contracts/CartProducts.sol",
  "compiler": {
    "name": "solc",
    "version": "0.8.13+commit.abaa5c0e.Emscripten.clang"
  },
  "schemaVersion": "3.4.4",
  "updatedAt": "2022-08-06T14:52:56.368Z",
  "devdoc": {
    "kind": "dev",
    "methods": {
      "isOwner()": {
        "returns": {
          "_0": "true if `msg.sender` is the owner of the contract."
        }
      },
      "owner()": {
        "returns": {
          "_0": "the address of the owner."
        }
      },
      "renounceOwnership()": {
        "details": "Allows the current owner to relinquish control of the contract."
      },
      "transferOwnership(address)": {
        "details": "Allows the current owner to transfer control of the contract to a newOwner.",
        "params": {
          "newOwner": "The address to transfer ownership to."
        }
      }
    },
    "version": 1
  },
  "userdoc": {
    "kind": "user",
    "methods": {
      "renounceOwnership()": {
        "notice": "Renouncing to ownership will leave the contract without an owner. It will not be possible to call the functions with the `onlyOwner` modifier anymore."
      }
    },
    "version": 1
  }
}