{
  "contractName": "Carts",
  "abi": [
    {
      "anonymous": false,
      "inputs": [
        {
          "indexed": true,
          "internalType": "address",
          "name": "previousOwner",
          "type": "address"
        },
        {
          "indexed": true,
          "internalType": "address",
          "name": "newOwner",
          "type": "address"
        }
      ],
      "name": "OwnershipTransferred",
      "type": "event"
    },
    {
      "inputs": [
        {
          "internalType": "uint256",
          "name": "",
          "type": "uint256"
        }
      ],
      "name": "carts",
      "outputs": [
        {
          "internalType": "uint256",
          "name": "id_shop",
          "type": "uint256"
        },
        {
          "internalType": "uint256",
          "name": "id_customer",
          "type": "uint256"
        },
        {
          "internalType": "uint8",
          "name": "status",
          "type": "uint8"
        },
        {
          "internalType": "uint256",
          "name": "created_at",
          "type": "uint256"
        },
        {
          "internalType": "uint256",
          "name": "updated_at",
          "type": "uint256"
        }
      ],
      "stateMutability": "view",
      "type": "function",
      "constant": true
    },
    {
      "inputs": [],
      "name": "isOwner",
      "outputs": [
        {
          "internalType": "bool",
          "name": "",
          "type": "bool"
        }
      ],
      "stateMutability": "view",
      "type": "function",
      "constant": true
    },
    {
      "inputs": [],
      "name": "owner",
      "outputs": [
        {
          "internalType": "address",
          "name": "",
          "type": "address"
        }
      ],
      "stateMutability": "view",
      "type": "function",
      "constant": true
    },
    {
      "inputs": [],
      "name": "renounceOwnership",
      "outputs": [],
      "stateMutability": "nonpayable",
      "type": "function"
    },
    {
      "inputs": [
        {
          "internalType": "address",
          "name": "newOwner",
          "type": "address"
        }
      ],
      "name": "transferOwnership",
      "outputs": [],
      "stateMutability": "nonpayable",
      "type": "function"
    },
    {
      "inputs": [],
      "name": "getCarts",
      "outputs": [
        {
          "components": [
            {
              "internalType": "uint256",
              "name": "id_shop",
              "type": "uint256"
            },
            {
              "internalType": "uint256",
              "name": "id_customer",
              "type": "uint256"
            },
            {
              "internalType": "uint8",
              "name": "status",
              "type": "uint8"
            },
            {
              "internalType": "uint256",
              "name": "created_at",
              "type": "uint256"
            },
            {
              "internalType": "uint256",
              "name": "updated_at",
              "type": "uint256"
            }
          ],
          "internalType": "struct Carts.Cart[]",
          "name": "",
          "type": "tuple[]"
        }
      ],
      "stateMutability": "view",
      "type": "function",
      "constant": true
    },
    {
      "inputs": [
        {
          "internalType": "uint256",
          "name": "_id_shop",
          "type": "uint256"
        },
        {
          "internalType": "uint256",
          "name": "_id_customer",
          "type": "uint256"
        }
      ],
      "name": "createCart",
      "outputs": [],
      "stateMutability": "nonpayable",
      "type": "function"
    },
    {
      "inputs": [
        {
          "internalType": "uint256",
          "name": "_id",
          "type": "uint256"
        }
      ],
      "name": "getCartsByCustomer",
      "outputs": [
        {
          "components": [
            {
              "internalType": "uint256",
              "name": "id_shop",
              "type": "uint256"
            },
            {
              "internalType": "uint256",
              "name": "id_customer",
              "type": "uint256"
            },
            {
              "internalType": "uint8",
              "name": "status",
              "type": "uint8"
            },
            {
              "internalType": "uint256",
              "name": "created_at",
              "type": "uint256"
            },
            {
              "internalType": "uint256",
              "name": "updated_at",
              "type": "uint256"
            }
          ],
          "internalType": "struct Carts.Cart[]",
          "name": "",
          "type": "tuple[]"
        }
      ],
      "stateMutability": "view",
      "type": "function",
      "constant": true
    }
  ],
  "bytecode": "0x608060405234801561001057600080fd5b50336000806101000a81548173ffffffffffffffffffffffffffffffffffffffff021916908373ffffffffffffffffffffffffffffffffffffffff16021790555060008054906101000a900473ffffffffffffffffffffffffffffffffffffffff1673ffffffffffffffffffffffffffffffffffffffff16600073ffffffffffffffffffffffffffffffffffffffff167f8be0079c531659141344cd1fd0a4f28419497f9722a3daafe3b4186f6b6457e060405160405180910390a3610b9a806100db6000396000f3fe608060405234801561001057600080fd5b50600436106100885760003560e01c80638f32d59b1161005b5780638f32d59b1461010357806390ed607914610121578063bb4d70cc1461013d578063f2fde38b1461017157610088565b8063715018a61461008d57806386bb19ee14610097578063893d340a146100b55780638da5cb5b146100e5575b600080fd5b61009561018d565b005b61009f61025c565b6040516100ac9190610873565b60405180910390f35b6100cf60048036038101906100ca91906108c6565b610300565b6040516100dc9190610873565b60405180910390f35b6100ed610459565b6040516100fa9190610934565b60405180910390f35b61010b610482565b604051610118919061096a565b60405180910390f35b61013b60048036038101906101369190610985565b6104d9565b005b610157600480360381019061015291906108c6565b61058f565b6040516101689594939291906109e3565b60405180910390f35b61018b60048036038101906101869190610a62565b6105e2565b005b610195610482565b61019e57600080fd5b600073ffffffffffffffffffffffffffffffffffffffff1660008054906101000a900473ffffffffffffffffffffffffffffffffffffffff1673ffffffffffffffffffffffffffffffffffffffff167f8be0079c531659141344cd1fd0a4f28419497f9722a3daafe3b4186f6b6457e060405160405180910390a360008060006101000a81548173ffffffffffffffffffffffffffffffffffffffff021916908373ffffffffffffffffffffffffffffffffffffffff160217905550565b60606001805480602002602001604051908101604052809291908181526020016000905b828210156102f757838290600052602060002090600502016040518060a001604052908160008201548152602001600182015481526020016002820160009054906101000a900460ff1660ff1660ff1681526020016003820154815260200160048201548152505081526020019060010190610280565b50505050905090565b6060600060018054905067ffffffffffffffff81111561032357610322610a8f565b5b60405190808252806020026020018201604052801561035c57816020015b6103496106f5565b8152602001906001900390816103415790505b5090506000805b60018054905081101561044e576001818154811061038457610383610abe565b5b906000526020600020906005020160010154850361043b57600181815481106103b0576103af610abe565b5b90600052602060002090600502016040518060a001604052908160008201548152602001600182015481526020016002820160009054906101000a900460ff1660ff1660ff1681526020016003820154815260200160048201548152505083838151811061042157610420610abe565b5b6020026020010181905250818061043790610b1c565b9250505b808061044690610b1c565b915050610363565b508192505050919050565b60008060009054906101000a900473ffffffffffffffffffffffffffffffffffffffff16905090565b60008060009054906101000a900473ffffffffffffffffffffffffffffffffffffffff1673ffffffffffffffffffffffffffffffffffffffff163373ffffffffffffffffffffffffffffffffffffffff1614905090565b6104e1610482565b6104ea57600080fd5b60016040518060a00160405280848152602001838152602001600060ff168152602001428152602001428152509080600181540180825580915050600190039060005260206000209060050201600090919091909150600082015181600001556020820151816001015560408201518160020160006101000a81548160ff021916908360ff160217905550606082015181600301556080820151816004015550505050565b6001818154811061059f57600080fd5b90600052602060002090600502016000915090508060000154908060010154908060020160009054906101000a900460ff16908060030154908060040154905085565b6105ea610482565b6105f357600080fd5b6105fc816105ff565b50565b600073ffffffffffffffffffffffffffffffffffffffff168173ffffffffffffffffffffffffffffffffffffffff160361063857600080fd5b8073ffffffffffffffffffffffffffffffffffffffff1660008054906101000a900473ffffffffffffffffffffffffffffffffffffffff1673ffffffffffffffffffffffffffffffffffffffff167f8be0079c531659141344cd1fd0a4f28419497f9722a3daafe3b4186f6b6457e060405160405180910390a3806000806101000a81548173ffffffffffffffffffffffffffffffffffffffff021916908373ffffffffffffffffffffffffffffffffffffffff16021790555050565b6040518060a001604052806000815260200160008152602001600060ff16815260200160008152602001600081525090565b600081519050919050565b600082825260208201905092915050565b6000819050602082019050919050565b6000819050919050565b61076681610753565b82525050565b600060ff82169050919050565b6107828161076c565b82525050565b60a08201600082015161079e600085018261075d565b5060208201516107b1602085018261075d565b5060408201516107c46040850182610779565b5060608201516107d7606085018261075d565b5060808201516107ea608085018261075d565b50505050565b60006107fc8383610788565b60a08301905092915050565b6000602082019050919050565b600061082082610727565b61082a8185610732565b935061083583610743565b8060005b8381101561086657815161084d88826107f0565b975061085883610808565b925050600181019050610839565b5085935050505092915050565b6000602082019050818103600083015261088d8184610815565b905092915050565b600080fd5b6108a381610753565b81146108ae57600080fd5b50565b6000813590506108c08161089a565b92915050565b6000602082840312156108dc576108db610895565b5b60006108ea848285016108b1565b91505092915050565b600073ffffffffffffffffffffffffffffffffffffffff82169050919050565b600061091e826108f3565b9050919050565b61092e81610913565b82525050565b60006020820190506109496000830184610925565b92915050565b60008115159050919050565b6109648161094f565b82525050565b600060208201905061097f600083018461095b565b92915050565b6000806040838503121561099c5761099b610895565b5b60006109aa858286016108b1565b92505060206109bb858286016108b1565b9150509250929050565b6109ce81610753565b82525050565b6109dd8161076c565b82525050565b600060a0820190506109f860008301886109c5565b610a0560208301876109c5565b610a1260408301866109d4565b610a1f60608301856109c5565b610a2c60808301846109c5565b9695505050505050565b610a3f81610913565b8114610a4a57600080fd5b50565b600081359050610a5c81610a36565b92915050565b600060208284031215610a7857610a77610895565b5b6000610a8684828501610a4d565b91505092915050565b7f4e487b7100000000000000000000000000000000000000000000000000000000600052604160045260246000fd5b7f4e487b7100000000000000000000000000000000000000000000000000000000600052603260045260246000fd5b7f4e487b7100000000000000000000000000000000000000000000000000000000600052601160045260246000fd5b6000610b2782610753565b91507fffffffffffffffffffffffffffffffffffffffffffffffffffffffffffffffff8203610b5957610b58610aed565b5b60018201905091905056fea26469706673582212209b2788ec5d3b50d6a26f839c35424aa72e4ebb3b8468b1212a3d2fce6308035164736f6c634300080d0033",
  "immutableReferences": {},
  "source": "pragma solidity ^0.8.0;\n\nimport \"./ownable.sol\";\n\ncontract Carts is Ownable {\n  struct Cart {\n    uint256 id_shop;\n    uint256 id_customer;\n    uint8 status;\n    uint256 created_at;\n    uint256 updated_at;\n  }\n\n  Cart[] public carts;\n\n  function getCarts() public view returns(Cart[] memory){\n    return carts;\n  }\n\n\n  function createCart(uint256 _id_shop, uint256 _id_customer) external onlyOwner {\n    carts.push(Cart(_id_shop, _id_customer, 0, block.timestamp, block.timestamp));\n  }\n  \n\n  function getCartsByCustomer(uint256 _id) public view returns(Cart[] memory) {\n    Cart[] memory result = new Cart[](carts.length);\n    uint counter = 0;\n    for (uint i = 0; i < carts.length; i++) {\n      if (_id == carts[i].id_customer) {\n        result[counter] = carts[i];\n        counter++;\n      }\n    }\n\n    return result;\n  }\n\n  \n}",
  "sourcePath": "/home/hayek/proyectos_personales/marketplace_solidity/src/contracts/Carts.sol",
  "compiler": {
    "name": "solc",
    "version": "0.8.13+commit.abaa5c0e.Emscripten.clang"
  },
  "schemaVersion": "3.4.4",
  "updatedAt": "2022-08-06T14:55:21.479Z",
  "networkType": "ethereum",
  "devdoc": {
    "kind": "dev",
    "methods": {
      "isOwner()": {
        "returns": {
          "_0": "true if `msg.sender` is the owner of the contract."
        }
      },
      "owner()": {
        "returns": {
          "_0": "the address of the owner."
        }
      },
      "renounceOwnership()": {
        "details": "Allows the current owner to relinquish control of the contract."
      },
      "transferOwnership(address)": {
        "details": "Allows the current owner to transfer control of the contract to a newOwner.",
        "params": {
          "newOwner": "The address to transfer ownership to."
        }
      }
    },
    "version": 1
  },
  "userdoc": {
    "kind": "user",
    "methods": {
      "renounceOwnership()": {
        "notice": "Renouncing to ownership will leave the contract without an owner. It will not be possible to call the functions with the `onlyOwner` modifier anymore."
      }
    },
    "version": 1
  }
}