{
  "contractName": "Customers",
  "abi": [
    {
      "anonymous": false,
      "inputs": [
        {
          "indexed": true,
          "internalType": "address",
          "name": "previousOwner",
          "type": "address"
        },
        {
          "indexed": true,
          "internalType": "address",
          "name": "newOwner",
          "type": "address"
        }
      ],
      "name": "OwnershipTransferred",
      "type": "event"
    },
    {
      "inputs": [
        {
          "internalType": "uint256",
          "name": "",
          "type": "uint256"
        }
      ],
      "name": "customers",
      "outputs": [
        {
          "internalType": "uint256",
          "name": "id",
          "type": "uint256"
        },
        {
          "internalType": "string",
          "name": "first_name",
          "type": "string"
        },
        {
          "internalType": "string",
          "name": "last_name",
          "type": "string"
        },
        {
          "internalType": "string",
          "name": "phisical_address",
          "type": "string"
        },
        {
          "internalType": "address",
          "name": "wallet_address",
          "type": "address"
        },
        {
          "internalType": "uint8",
          "name": "status",
          "type": "uint8"
        },
        {
          "internalType": "uint256",
          "name": "created_at",
          "type": "uint256"
        },
        {
          "internalType": "uint256",
          "name": "updated_at",
          "type": "uint256"
        }
      ],
      "stateMutability": "view",
      "type": "function",
      "constant": true
    },
    {
      "inputs": [],
      "name": "isOwner",
      "outputs": [
        {
          "internalType": "bool",
          "name": "",
          "type": "bool"
        }
      ],
      "stateMutability": "view",
      "type": "function",
      "constant": true
    },
    {
      "inputs": [],
      "name": "owner",
      "outputs": [
        {
          "internalType": "address",
          "name": "",
          "type": "address"
        }
      ],
      "stateMutability": "view",
      "type": "function",
      "constant": true
    },
    {
      "inputs": [],
      "name": "renounceOwnership",
      "outputs": [],
      "stateMutability": "nonpayable",
      "type": "function"
    },
    {
      "inputs": [
        {
          "internalType": "address",
          "name": "newOwner",
          "type": "address"
        }
      ],
      "name": "transferOwnership",
      "outputs": [],
      "stateMutability": "nonpayable",
      "type": "function"
    },
    {
      "inputs": [],
      "name": "getCustomers",
      "outputs": [
        {
          "components": [
            {
              "internalType": "uint256",
              "name": "id",
              "type": "uint256"
            },
            {
              "internalType": "string",
              "name": "first_name",
              "type": "string"
            },
            {
              "internalType": "string",
              "name": "last_name",
              "type": "string"
            },
            {
              "internalType": "string",
              "name": "phisical_address",
              "type": "string"
            },
            {
              "internalType": "address",
              "name": "wallet_address",
              "type": "address"
            },
            {
              "internalType": "uint8",
              "name": "status",
              "type": "uint8"
            },
            {
              "internalType": "uint256",
              "name": "created_at",
              "type": "uint256"
            },
            {
              "internalType": "uint256",
              "name": "updated_at",
              "type": "uint256"
            }
          ],
          "internalType": "struct Customers.Customer[]",
          "name": "",
          "type": "tuple[]"
        }
      ],
      "stateMutability": "view",
      "type": "function",
      "constant": true
    },
    {
      "inputs": [
        {
          "internalType": "string",
          "name": "_first_name",
          "type": "string"
        },
        {
          "internalType": "string",
          "name": "_last_name",
          "type": "string"
        },
        {
          "internalType": "string",
          "name": "_phisical_address",
          "type": "string"
        }
      ],
      "name": "createCustomer",
      "outputs": [],
      "stateMutability": "nonpayable",
      "type": "function"
    }
  ],
  "bytecode": "0x608060405234801561001057600080fd5b50336000806101000a81548173ffffffffffffffffffffffffffffffffffffffff021916908373ffffffffffffffffffffffffffffffffffffffff16021790555060008054906101000a900473ffffffffffffffffffffffffffffffffffffffff1673ffffffffffffffffffffffffffffffffffffffff16600073ffffffffffffffffffffffffffffffffffffffff167f8be0079c531659141344cd1fd0a4f28419497f9722a3daafe3b4186f6b6457e060405160405180910390a36111ca806100db6000396000f3fe608060405234801561001057600080fd5b506004361061007d5760003560e01c80638f32d59b1161005b5780638f32d59b146100c6578063c0abda2a146100e4578063f1ba71271461011b578063f2fde38b146101395761007d565b806355b059e814610082578063715018a61461009e5780638da5cb5b146100a8575b600080fd5b61009c60048036038101906100979190610be0565b610155565b005b6100a66102bd565b005b6100b061038c565b6040516100bd9190610cc8565b60405180910390f35b6100ce6103b5565b6040516100db9190610cfe565b60405180910390f35b6100fe60048036038101906100f99190610d4f565b61040c565b604051610112989796959493929190610e2f565b60405180910390f35b610123610629565b60405161013091906110b9565b60405180910390f35b610153600480360381019061014e9190611107565b6108d0565b005b600160405180610100016040528060018054905081526020018581526020018481526020018381526020013373ffffffffffffffffffffffffffffffffffffffff168152602001600060ff1681526020014281526020014281525090806001815401808255809150506001900390600052602060002090600702016000909190919091506000820151816000015560208201518160010190805190602001906101ff9291906109e3565b50604082015181600201908051906020019061021c9291906109e3565b5060608201518160030190805190602001906102399291906109e3565b5060808201518160040160006101000a81548173ffffffffffffffffffffffffffffffffffffffff021916908373ffffffffffffffffffffffffffffffffffffffff16021790555060a08201518160040160146101000a81548160ff021916908360ff16021790555060c0820151816005015560e082015181600601555050505050565b6102c56103b5565b6102ce57600080fd5b600073ffffffffffffffffffffffffffffffffffffffff1660008054906101000a900473ffffffffffffffffffffffffffffffffffffffff1673ffffffffffffffffffffffffffffffffffffffff167f8be0079c531659141344cd1fd0a4f28419497f9722a3daafe3b4186f6b6457e060405160405180910390a360008060006101000a81548173ffffffffffffffffffffffffffffffffffffffff021916908373ffffffffffffffffffffffffffffffffffffffff160217905550565b60008060009054906101000a900473ffffffffffffffffffffffffffffffffffffffff16905090565b60008060009054906101000a900473ffffffffffffffffffffffffffffffffffffffff1673ffffffffffffffffffffffffffffffffffffffff163373ffffffffffffffffffffffffffffffffffffffff1614905090565b6001818154811061041c57600080fd5b906000526020600020906007020160009150905080600001549080600101805461044590611163565b80601f016020809104026020016040519081016040528092919081815260200182805461047190611163565b80156104be5780601f10610493576101008083540402835291602001916104be565b820191906000526020600020905b8154815290600101906020018083116104a157829003601f168201915b5050505050908060020180546104d390611163565b80601f01602080910402602001604051908101604052809291908181526020018280546104ff90611163565b801561054c5780601f106105215761010080835404028352916020019161054c565b820191906000526020600020905b81548152906001019060200180831161052f57829003601f168201915b50505050509080600301805461056190611163565b80601f016020809104026020016040519081016040528092919081815260200182805461058d90611163565b80156105da5780601f106105af576101008083540402835291602001916105da565b820191906000526020600020905b8154815290600101906020018083116105bd57829003601f168201915b5050505050908060040160009054906101000a900473ffffffffffffffffffffffffffffffffffffffff16908060040160149054906101000a900460ff16908060050154908060060154905088565b60606001805480602002602001604051908101604052809291908181526020016000905b828210156108c75783829060005260206000209060070201604051806101000160405290816000820154815260200160018201805461068b90611163565b80601f01602080910402602001604051908101604052809291908181526020018280546106b790611163565b80156107045780601f106106d957610100808354040283529160200191610704565b820191906000526020600020905b8154815290600101906020018083116106e757829003601f168201915b5050505050815260200160028201805461071d90611163565b80601f016020809104026020016040519081016040528092919081815260200182805461074990611163565b80156107965780601f1061076b57610100808354040283529160200191610796565b820191906000526020600020905b81548152906001019060200180831161077957829003601f168201915b505050505081526020016003820180546107af90611163565b80601f01602080910402602001604051908101604052809291908181526020018280546107db90611163565b80156108285780601f106107fd57610100808354040283529160200191610828565b820191906000526020600020905b81548152906001019060200180831161080b57829003601f168201915b505050505081526020016004820160009054906101000a900473ffffffffffffffffffffffffffffffffffffffff1673ffffffffffffffffffffffffffffffffffffffff1673ffffffffffffffffffffffffffffffffffffffff1681526020016004820160149054906101000a900460ff1660ff1660ff168152602001600582015481526020016006820154815250508152602001906001019061064d565b50505050905090565b6108d86103b5565b6108e157600080fd5b6108ea816108ed565b50565b600073ffffffffffffffffffffffffffffffffffffffff168173ffffffffffffffffffffffffffffffffffffffff160361092657600080fd5b8073ffffffffffffffffffffffffffffffffffffffff1660008054906101000a900473ffffffffffffffffffffffffffffffffffffffff1673ffffffffffffffffffffffffffffffffffffffff167f8be0079c531659141344cd1fd0a4f28419497f9722a3daafe3b4186f6b6457e060405160405180910390a3806000806101000a81548173ffffffffffffffffffffffffffffffffffffffff021916908373ffffffffffffffffffffffffffffffffffffffff16021790555050565b8280546109ef90611163565b90600052602060002090601f016020900481019282610a115760008555610a58565b82601f10610a2a57805160ff1916838001178555610a58565b82800160010185558215610a58579182015b82811115610a57578251825591602001919060010190610a3c565b5b509050610a659190610a69565b5090565b5b80821115610a82576000816000905550600101610a6a565b5090565b6000604051905090565b600080fd5b600080fd5b600080fd5b600080fd5b6000601f19601f8301169050919050565b7f4e487b7100000000000000000000000000000000000000000000000000000000600052604160045260246000fd5b610aed82610aa4565b810181811067ffffffffffffffff82111715610b0c57610b0b610ab5565b5b80604052505050565b6000610b1f610a86565b9050610b2b8282610ae4565b919050565b600067ffffffffffffffff821115610b4b57610b4a610ab5565b5b610b5482610aa4565b9050602081019050919050565b82818337600083830152505050565b6000610b83610b7e84610b30565b610b15565b905082815260208101848484011115610b9f57610b9e610a9f565b5b610baa848285610b61565b509392505050565b600082601f830112610bc757610bc6610a9a565b5b8135610bd7848260208601610b70565b91505092915050565b600080600060608486031215610bf957610bf8610a90565b5b600084013567ffffffffffffffff811115610c1757610c16610a95565b5b610c2386828701610bb2565b935050602084013567ffffffffffffffff811115610c4457610c43610a95565b5b610c5086828701610bb2565b925050604084013567ffffffffffffffff811115610c7157610c70610a95565b5b610c7d86828701610bb2565b9150509250925092565b600073ffffffffffffffffffffffffffffffffffffffff82169050919050565b6000610cb282610c87565b9050919050565b610cc281610ca7565b82525050565b6000602082019050610cdd6000830184610cb9565b92915050565b60008115159050919050565b610cf881610ce3565b82525050565b6000602082019050610d136000830184610cef565b92915050565b6000819050919050565b610d2c81610d19565b8114610d3757600080fd5b50565b600081359050610d4981610d23565b92915050565b600060208284031215610d6557610d64610a90565b5b6000610d7384828501610d3a565b91505092915050565b610d8581610d19565b82525050565b600081519050919050565b600082825260208201905092915050565b60005b83811015610dc5578082015181840152602081019050610daa565b83811115610dd4576000848401525b50505050565b6000610de582610d8b565b610def8185610d96565b9350610dff818560208601610da7565b610e0881610aa4565b840191505092915050565b600060ff82169050919050565b610e2981610e13565b82525050565b600061010082019050610e45600083018b610d7c565b8181036020830152610e57818a610dda565b90508181036040830152610e6b8189610dda565b90508181036060830152610e7f8188610dda565b9050610e8e6080830187610cb9565b610e9b60a0830186610e20565b610ea860c0830185610d7c565b610eb560e0830184610d7c565b9998505050505050505050565b600081519050919050565b600082825260208201905092915050565b6000819050602082019050919050565b610ef781610d19565b82525050565b600082825260208201905092915050565b6000610f1982610d8b565b610f238185610efd565b9350610f33818560208601610da7565b610f3c81610aa4565b840191505092915050565b610f5081610ca7565b82525050565b610f5f81610e13565b82525050565b600061010083016000830151610f7e6000860182610eee565b5060208301518482036020860152610f968282610f0e565b91505060408301518482036040860152610fb08282610f0e565b91505060608301518482036060860152610fca8282610f0e565b9150506080830151610fdf6080860182610f47565b5060a0830151610ff260a0860182610f56565b5060c083015161100560c0860182610eee565b5060e083015161101860e0860182610eee565b508091505092915050565b600061102f8383610f65565b905092915050565b6000602082019050919050565b600061104f82610ec2565b6110598185610ecd565b93508360208202850161106b85610ede565b8060005b858110156110a757848403895281516110888582611023565b945061109383611037565b925060208a0199505060018101905061106f565b50829750879550505050505092915050565b600060208201905081810360008301526110d38184611044565b905092915050565b6110e481610ca7565b81146110ef57600080fd5b50565b600081359050611101816110db565b92915050565b60006020828403121561111d5761111c610a90565b5b600061112b848285016110f2565b91505092915050565b7f4e487b7100000000000000000000000000000000000000000000000000000000600052602260045260246000fd5b6000600282049050600182168061117b57607f821691505b60208210810361118e5761118d611134565b5b5091905056fea264697066735822122020c90fb74af05c38a6ecc700b343a83f4ceb7bddf85539e853b8f64a765b340f64736f6c634300080d0033",
  "immutableReferences": {},
  "source": "pragma solidity ^0.8.0;\n\nimport \"./ownable.sol\";\n\ncontract Customers is Ownable {\n  struct Customer {\n    uint256 id;\n    string first_name;\n    string last_name;\n    string phisical_address;\n    address wallet_address;\n    uint8 status;\n    uint256 created_at;\n    uint256 updated_at;\n  }\n\n  Customer[] public customers;\n\n  function getCustomers() public view returns(Customer[] memory){\n    return customers;\n  }\n\n  function createCustomer(string memory _first_name, string memory _last_name, string memory _phisical_address) public {\n    customers.push(Customer(customers.length, _first_name, _last_name, _phisical_address, msg.sender, 0, block.timestamp, block.timestamp));\n  }\n}",
  "sourcePath": "/home/hayek/proyectos_personales/marketplace_solidity/src/contracts/Customers.sol",
  "compiler": {
    "name": "solc",
    "version": "0.8.13+commit.abaa5c0e.Emscripten.clang"
  },
  "schemaVersion": "3.4.4",
  "updatedAt": "2022-08-06T14:55:19.320Z",
  "networkType": "ethereum",
  "devdoc": {
    "kind": "dev",
    "methods": {
      "isOwner()": {
        "returns": {
          "_0": "true if `msg.sender` is the owner of the contract."
        }
      },
      "owner()": {
        "returns": {
          "_0": "the address of the owner."
        }
      },
      "renounceOwnership()": {
        "details": "Allows the current owner to relinquish control of the contract."
      },
      "transferOwnership(address)": {
        "details": "Allows the current owner to transfer control of the contract to a newOwner.",
        "params": {
          "newOwner": "The address to transfer ownership to."
        }
      }
    },
    "version": 1
  },
  "userdoc": {
    "kind": "user",
    "methods": {
      "renounceOwnership()": {
        "notice": "Renouncing to ownership will leave the contract without an owner. It will not be possible to call the functions with the `onlyOwner` modifier anymore."
      }
    },
    "version": 1
  }
}