{
  "contractName": "Orders",
  "abi": [
    {
      "anonymous": false,
      "inputs": [
        {
          "indexed": true,
          "internalType": "address",
          "name": "previousOwner",
          "type": "address"
        },
        {
          "indexed": true,
          "internalType": "address",
          "name": "newOwner",
          "type": "address"
        }
      ],
      "name": "OwnershipTransferred",
      "type": "event"
    },
    {
      "inputs": [],
      "name": "isOwner",
      "outputs": [
        {
          "internalType": "bool",
          "name": "",
          "type": "bool"
        }
      ],
      "stateMutability": "view",
      "type": "function",
      "constant": true
    },
    {
      "inputs": [
        {
          "internalType": "uint256",
          "name": "",
          "type": "uint256"
        }
      ],
      "name": "orders",
      "outputs": [
        {
          "internalType": "uint256",
          "name": "id_shop",
          "type": "uint256"
        },
        {
          "internalType": "uint256",
          "name": "id_customer",
          "type": "uint256"
        },
        {
          "internalType": "uint256",
          "name": "id_cart",
          "type": "uint256"
        },
        {
          "internalType": "uint8",
          "name": "status",
          "type": "uint8"
        },
        {
          "internalType": "uint8",
          "name": "total_amount",
          "type": "uint8"
        },
        {
          "internalType": "uint256",
          "name": "created_at",
          "type": "uint256"
        },
        {
          "internalType": "uint256",
          "name": "updated_at",
          "type": "uint256"
        }
      ],
      "stateMutability": "view",
      "type": "function",
      "constant": true
    },
    {
      "inputs": [],
      "name": "owner",
      "outputs": [
        {
          "internalType": "address",
          "name": "",
          "type": "address"
        }
      ],
      "stateMutability": "view",
      "type": "function",
      "constant": true
    },
    {
      "inputs": [],
      "name": "renounceOwnership",
      "outputs": [],
      "stateMutability": "nonpayable",
      "type": "function"
    },
    {
      "inputs": [
        {
          "internalType": "address",
          "name": "newOwner",
          "type": "address"
        }
      ],
      "name": "transferOwnership",
      "outputs": [],
      "stateMutability": "nonpayable",
      "type": "function"
    },
    {
      "inputs": [],
      "name": "getOrders",
      "outputs": [
        {
          "components": [
            {
              "internalType": "uint256",
              "name": "id_shop",
              "type": "uint256"
            },
            {
              "internalType": "uint256",
              "name": "id_customer",
              "type": "uint256"
            },
            {
              "internalType": "uint256",
              "name": "id_cart",
              "type": "uint256"
            },
            {
              "internalType": "uint8",
              "name": "status",
              "type": "uint8"
            },
            {
              "internalType": "uint8",
              "name": "total_amount",
              "type": "uint8"
            },
            {
              "internalType": "uint256",
              "name": "created_at",
              "type": "uint256"
            },
            {
              "internalType": "uint256",
              "name": "updated_at",
              "type": "uint256"
            }
          ],
          "internalType": "struct Orders.Order[]",
          "name": "",
          "type": "tuple[]"
        }
      ],
      "stateMutability": "view",
      "type": "function",
      "constant": true
    },
    {
      "inputs": [
        {
          "internalType": "uint256",
          "name": "_id_shop",
          "type": "uint256"
        },
        {
          "internalType": "uint256",
          "name": "_id_customer",
          "type": "uint256"
        },
        {
          "internalType": "uint256",
          "name": "_id_cart",
          "type": "uint256"
        }
      ],
      "name": "createOrder",
      "outputs": [],
      "stateMutability": "nonpayable",
      "type": "function"
    },
    {
      "inputs": [
        {
          "internalType": "uint256",
          "name": "_id",
          "type": "uint256"
        }
      ],
      "name": "getOrdersByCustomer",
      "outputs": [
        {
          "components": [
            {
              "internalType": "uint256",
              "name": "id_shop",
              "type": "uint256"
            },
            {
              "internalType": "uint256",
              "name": "id_customer",
              "type": "uint256"
            },
            {
              "internalType": "uint256",
              "name": "id_cart",
              "type": "uint256"
            },
            {
              "internalType": "uint8",
              "name": "status",
              "type": "uint8"
            },
            {
              "internalType": "uint8",
              "name": "total_amount",
              "type": "uint8"
            },
            {
              "internalType": "uint256",
              "name": "created_at",
              "type": "uint256"
            },
            {
              "internalType": "uint256",
              "name": "updated_at",
              "type": "uint256"
            }
          ],
          "internalType": "struct Orders.Order[]",
          "name": "",
          "type": "tuple[]"
        }
      ],
      "stateMutability": "view",
      "type": "function",
      "constant": true
    },
    {
      "inputs": [
        {
          "internalType": "uint256",
          "name": "_id",
          "type": "uint256"
        }
      ],
      "name": "getOrdersByShop",
      "outputs": [
        {
          "components": [
            {
              "internalType": "uint256",
              "name": "id_shop",
              "type": "uint256"
            },
            {
              "internalType": "uint256",
              "name": "id_customer",
              "type": "uint256"
            },
            {
              "internalType": "uint256",
              "name": "id_cart",
              "type": "uint256"
            },
            {
              "internalType": "uint8",
              "name": "status",
              "type": "uint8"
            },
            {
              "internalType": "uint8",
              "name": "total_amount",
              "type": "uint8"
            },
            {
              "internalType": "uint256",
              "name": "created_at",
              "type": "uint256"
            },
            {
              "internalType": "uint256",
              "name": "updated_at",
              "type": "uint256"
            }
          ],
          "internalType": "struct Orders.Order[]",
          "name": "",
          "type": "tuple[]"
        }
      ],
      "stateMutability": "view",
      "type": "function",
      "constant": true
    }
  ],
  "bytecode": "0x608060405234801561001057600080fd5b50336000806101000a81548173ffffffffffffffffffffffffffffffffffffffff021916908373ffffffffffffffffffffffffffffffffffffffff16021790555060008054906101000a900473ffffffffffffffffffffffffffffffffffffffff1673ffffffffffffffffffffffffffffffffffffffff16600073ffffffffffffffffffffffffffffffffffffffff167f8be0079c531659141344cd1fd0a4f28419497f9722a3daafe3b4186f6b6457e060405160405180910390a3610e62806100db6000396000f3fe608060405234801561001057600080fd5b50600436106100935760003560e01c8063a1ba444d11610066578063a1ba444d146100fc578063a85c38ef14610118578063d6bb0b9e1461014e578063f2fde38b1461017e578063fc4deaff1461019a57610093565b80632e2dc43e14610098578063715018a6146100b65780638da5cb5b146100c05780638f32d59b146100de575b600080fd5b6100a06101ca565b6040516100ad9190610b0c565b60405180910390f35b6100be610295565b005b6100c8610364565b6040516100d59190610b6f565b60405180910390f35b6100e661038d565b6040516100f39190610ba5565b60405180910390f35b61011660048036038101906101119190610bf1565b6103e4565b005b610132600480360381019061012d9190610c44565b6104d8565b6040516101459796959493929190610c8f565b60405180910390f35b61016860048036038101906101639190610c44565b610544565b6040516101759190610b0c565b60405180910390f35b61019860048036038101906101939190610d2a565b6106c4565b005b6101b460048036038101906101af9190610c44565b6106e1565b6040516101c19190610b0c565b60405180910390f35b60606001805480602002602001604051908101604052809291908181526020016000905b8282101561028c57838290600052602060002090600602016040518060e00160405290816000820154815260200160018201548152602001600282015481526020016003820160009054906101000a900460ff1660ff1660ff1681526020016003820160019054906101000a900460ff1660ff1660ff16815260200160048201548152602001600582015481525050815260200190600101906101ee565b50505050905090565b61029d61038d565b6102a657600080fd5b600073ffffffffffffffffffffffffffffffffffffffff1660008054906101000a900473ffffffffffffffffffffffffffffffffffffffff1673ffffffffffffffffffffffffffffffffffffffff167f8be0079c531659141344cd1fd0a4f28419497f9722a3daafe3b4186f6b6457e060405160405180910390a360008060006101000a81548173ffffffffffffffffffffffffffffffffffffffff021916908373ffffffffffffffffffffffffffffffffffffffff160217905550565b60008060009054906101000a900473ffffffffffffffffffffffffffffffffffffffff16905090565b60008060009054906101000a900473ffffffffffffffffffffffffffffffffffffffff1673ffffffffffffffffffffffffffffffffffffffff163373ffffffffffffffffffffffffffffffffffffffff1614905090565b6103ec61038d565b6103f557600080fd5b600060016040518060e00160405280868152602001858152602001848152602001600060ff1681526020018360ff16815260200142815260200142815250908060018154018082558091505060019003906000526020600020906006020160009091909190915060008201518160000155602082015181600101556040820151816002015560608201518160030160006101000a81548160ff021916908360ff16021790555060808201518160030160016101000a81548160ff021916908360ff16021790555060a0820151816004015560c08201518160050155505050505050565b600181815481106104e857600080fd5b90600052602060002090600602016000915090508060000154908060010154908060020154908060030160009054906101000a900460ff16908060030160019054906101000a900460ff16908060040154908060050154905087565b6060600060018054905067ffffffffffffffff81111561056757610566610d57565b5b6040519080825280602002602001820160405280156105a057816020015b61058d610957565b8152602001906001900390816105855790505b5090506000805b6001805490508110156106b957600181815481106105c8576105c7610d86565b5b90600052602060002090600602016000015485036106a657600181815481106105f4576105f3610d86565b5b90600052602060002090600602016040518060e00160405290816000820154815260200160018201548152602001600282015481526020016003820160009054906101000a900460ff1660ff1660ff1681526020016003820160019054906101000a900460ff1660ff1660ff1681526020016004820154815260200160058201548152505083838151811061068c5761068b610d86565b5b602002602001018190525081806106a290610de4565b9250505b80806106b190610de4565b9150506105a7565b508192505050919050565b6106cc61038d565b6106d557600080fd5b6106de81610861565b50565b6060600060018054905067ffffffffffffffff81111561070457610703610d57565b5b60405190808252806020026020018201604052801561073d57816020015b61072a610957565b8152602001906001900390816107225790505b5090506000805b600180549050811015610856576001818154811061076557610764610d86565b5b9060005260206000209060060201600101548503610843576001818154811061079157610790610d86565b5b90600052602060002090600602016040518060e00160405290816000820154815260200160018201548152602001600282015481526020016003820160009054906101000a900460ff1660ff1660ff1681526020016003820160019054906101000a900460ff1660ff1660ff1681526020016004820154815260200160058201548152505083838151811061082957610828610d86565b5b6020026020010181905250818061083f90610de4565b9250505b808061084e90610de4565b915050610744565b508192505050919050565b600073ffffffffffffffffffffffffffffffffffffffff168173ffffffffffffffffffffffffffffffffffffffff160361089a57600080fd5b8073ffffffffffffffffffffffffffffffffffffffff1660008054906101000a900473ffffffffffffffffffffffffffffffffffffffff1673ffffffffffffffffffffffffffffffffffffffff167f8be0079c531659141344cd1fd0a4f28419497f9722a3daafe3b4186f6b6457e060405160405180910390a3806000806101000a81548173ffffffffffffffffffffffffffffffffffffffff021916908373ffffffffffffffffffffffffffffffffffffffff16021790555050565b6040518060e00160405280600081526020016000815260200160008152602001600060ff168152602001600060ff16815260200160008152602001600081525090565b600081519050919050565b600082825260208201905092915050565b6000819050602082019050919050565b6000819050919050565b6109d9816109c6565b82525050565b600060ff82169050919050565b6109f5816109df565b82525050565b60e082016000820151610a1160008501826109d0565b506020820151610a2460208501826109d0565b506040820151610a3760408501826109d0565b506060820151610a4a60608501826109ec565b506080820151610a5d60808501826109ec565b5060a0820151610a7060a08501826109d0565b5060c0820151610a8360c08501826109d0565b50505050565b6000610a9583836109fb565b60e08301905092915050565b6000602082019050919050565b6000610ab98261099a565b610ac381856109a5565b9350610ace836109b6565b8060005b83811015610aff578151610ae68882610a89565b9750610af183610aa1565b925050600181019050610ad2565b5085935050505092915050565b60006020820190508181036000830152610b268184610aae565b905092915050565b600073ffffffffffffffffffffffffffffffffffffffff82169050919050565b6000610b5982610b2e565b9050919050565b610b6981610b4e565b82525050565b6000602082019050610b846000830184610b60565b92915050565b60008115159050919050565b610b9f81610b8a565b82525050565b6000602082019050610bba6000830184610b96565b92915050565b600080fd5b610bce816109c6565b8114610bd957600080fd5b50565b600081359050610beb81610bc5565b92915050565b600080600060608486031215610c0a57610c09610bc0565b5b6000610c1886828701610bdc565b9350506020610c2986828701610bdc565b9250506040610c3a86828701610bdc565b9150509250925092565b600060208284031215610c5a57610c59610bc0565b5b6000610c6884828501610bdc565b91505092915050565b610c7a816109c6565b82525050565b610c89816109df565b82525050565b600060e082019050610ca4600083018a610c71565b610cb16020830189610c71565b610cbe6040830188610c71565b610ccb6060830187610c80565b610cd86080830186610c80565b610ce560a0830185610c71565b610cf260c0830184610c71565b98975050505050505050565b610d0781610b4e565b8114610d1257600080fd5b50565b600081359050610d2481610cfe565b92915050565b600060208284031215610d4057610d3f610bc0565b5b6000610d4e84828501610d15565b91505092915050565b7f4e487b7100000000000000000000000000000000000000000000000000000000600052604160045260246000fd5b7f4e487b7100000000000000000000000000000000000000000000000000000000600052603260045260246000fd5b7f4e487b7100000000000000000000000000000000000000000000000000000000600052601160045260246000fd5b6000610def826109c6565b91507fffffffffffffffffffffffffffffffffffffffffffffffffffffffffffffffff8203610e2157610e20610db5565b5b60018201905091905056fea26469706673582212203ab370187aa7c22c8b76152a0f704b270b87cbb31df908c43a7976c4f8c64d9c64736f6c634300080d0033",
  "immutableReferences": {},
  "source": "pragma solidity ^0.8.0;\n\nimport \"./ownable.sol\";\n\ncontract Orders is Ownable {\n  struct Order {\n    uint256 id_shop;\n    uint256 id_customer;\n    uint256 id_cart;\n    uint8 status;\n    uint8 total_amount;\n    uint256 created_at;\n    uint256 updated_at;\n  }\n\n  Order[] public orders;\n\n  function getOrders() public view returns(Order[] memory){\n    return orders;\n  }\n\n\n  function createOrder(uint256 _id_shop, uint256 _id_customer, uint256 _id_cart) external onlyOwner {\n    /* TO DO\n    make the sum from cart and calculate total amount\n    */\n    uint8 total_amount = 0;\n    orders.push(Order(_id_shop, _id_customer, _id_cart, 0, total_amount, block.timestamp, block.timestamp));\n  }\n  \n\n  function getOrdersByCustomer(uint256 _id) public view returns(Order[] memory) {\n    Order[] memory result = new Order[](orders.length);\n    uint counter = 0;\n    for (uint i = 0; i < orders.length; i++) {\n      if (_id == orders[i].id_customer) {\n        result[counter] = orders[i];\n        counter++;\n      }\n    }\n\n    return result;\n  }\n\n  function getOrdersByShop(uint256 _id) public view returns(Order[] memory) {\n    Order[] memory result = new Order[](orders.length);\n    uint counter = 0;\n    for (uint i = 0; i < orders.length; i++) {\n      if (_id == orders[i].id_shop) {\n        result[counter] = orders[i];\n        counter++;\n      }\n    }\n\n    return result;\n  }  \n}",
  "sourcePath": "/home/hayek/proyectos_personales/marketplace_solidity/src/contracts/Orders.sol",
  "compiler": {
    "name": "solc",
    "version": "0.8.13+commit.abaa5c0e.Emscripten.clang"
  },
  "schemaVersion": "3.4.4",
  "updatedAt": "2022-08-06T15:12:05.271Z",
  "networkType": "ethereum",
  "devdoc": {
    "kind": "dev",
    "methods": {
      "isOwner()": {
        "returns": {
          "_0": "true if `msg.sender` is the owner of the contract."
        }
      },
      "owner()": {
        "returns": {
          "_0": "the address of the owner."
        }
      },
      "renounceOwnership()": {
        "details": "Allows the current owner to relinquish control of the contract."
      },
      "transferOwnership(address)": {
        "details": "Allows the current owner to transfer control of the contract to a newOwner.",
        "params": {
          "newOwner": "The address to transfer ownership to."
        }
      }
    },
    "version": 1
  },
  "userdoc": {
    "kind": "user",
    "methods": {
      "renounceOwnership()": {
        "notice": "Renouncing to ownership will leave the contract without an owner. It will not be possible to call the functions with the `onlyOwner` modifier anymore."
      }
    },
    "version": 1
  }
}