{
  "contractName": "PriceConsumerV3",
  "abi": [
    {
      "inputs": [],
      "stateMutability": "nonpayable",
      "type": "constructor"
    },
    {
      "inputs": [],
      "name": "priceFeed",
      "outputs": [
        {
          "internalType": "contract AggregatorV3Interface",
          "name": "",
          "type": "address"
        }
      ],
      "stateMutability": "view",
      "type": "function"
    },
    {
      "inputs": [],
      "name": "getLatestPrice",
      "outputs": [
        {
          "internalType": "int256",
          "name": "",
          "type": "int256"
        }
      ],
      "stateMutability": "view",
      "type": "function"
    },
    {
      "inputs": [],
      "name": "getDecimals",
      "outputs": [
        {
          "internalType": "uint8",
          "name": "",
          "type": "uint8"
        }
      ],
      "stateMutability": "view",
      "type": "function"
    }
  ],
  "bytecode": "0x608060405234801561001057600080fd5b50738a753747a1fa494ec906ce90e9f37563a8af630e6000806101000a81548173ffffffffffffffffffffffffffffffffffffffff021916908373ffffffffffffffffffffffffffffffffffffffff1602179055506104b6806100746000396000f3fe608060405234801561001057600080fd5b50600436106100415760003560e01c8063741bef1a146100465780638e15f47314610064578063f0141d8414610082575b600080fd5b61004e6100a0565b60405161005b919061027d565b60405180910390f35b61006c6100c4565b60405161007991906102b1565b60405180910390f35b61008a610163565b60405161009791906102e8565b60405180910390f35b60008054906101000a900473ffffffffffffffffffffffffffffffffffffffff1681565b60008060008054906101000a900473ffffffffffffffffffffffffffffffffffffffff1673ffffffffffffffffffffffffffffffffffffffff1663feaf968c6040518163ffffffff1660e01b815260040160a060405180830381865afa158015610132573d6000803e3d6000fd5b505050506040513d601f19601f8201168201806040525081019061015691906103ac565b5050509150508091505090565b60008060008054906101000a900473ffffffffffffffffffffffffffffffffffffffff1673ffffffffffffffffffffffffffffffffffffffff1663313ce5676040518163ffffffff1660e01b8152600401602060405180830381865afa1580156101d1573d6000803e3d6000fd5b505050506040513d601f19601f820116820180604052508101906101f59190610453565b90508091505090565b600073ffffffffffffffffffffffffffffffffffffffff82169050919050565b6000819050919050565b600061024361023e610239846101fe565b61021e565b6101fe565b9050919050565b600061025582610228565b9050919050565b60006102678261024a565b9050919050565b6102778161025c565b82525050565b6000602082019050610292600083018461026e565b92915050565b6000819050919050565b6102ab81610298565b82525050565b60006020820190506102c660008301846102a2565b92915050565b600060ff82169050919050565b6102e2816102cc565b82525050565b60006020820190506102fd60008301846102d9565b92915050565b600080fd5b600069ffffffffffffffffffff82169050919050565b61032781610308565b811461033257600080fd5b50565b6000815190506103448161031e565b92915050565b61035381610298565b811461035e57600080fd5b50565b6000815190506103708161034a565b92915050565b6000819050919050565b61038981610376565b811461039457600080fd5b50565b6000815190506103a681610380565b92915050565b600080600080600060a086880312156103c8576103c7610303565b5b60006103d688828901610335565b95505060206103e788828901610361565b94505060406103f888828901610397565b935050606061040988828901610397565b925050608061041a88828901610335565b9150509295509295909350565b610430816102cc565b811461043b57600080fd5b50565b60008151905061044d81610427565b92915050565b60006020828403121561046957610468610303565b5b60006104778482850161043e565b9150509291505056fea26469706673582212209b0bb4e267950067d01fff315298a2211390bf25e53559a01995464bed5ece4764736f6c634300080d0033",
  "immutableReferences": {},
  "source": "pragma solidity ^0.8.0;\n\nimport \"@chainlink/contracts/src/v0.8/interfaces/AggregatorV3Interface.sol\";\n\ncontract PriceConsumerV3 {\n  AggregatorV3Interface public priceFeed;\n\n  constructor() public {\n    priceFeed = AggregatorV3Interface(0x8A753747A1Fa494EC906cE90E9f37563A8AF630e);\n  }\n\n  function getLatestPrice() public view returns (int) {\n    (,int price,,,) = priceFeed.latestRoundData();\n    return price;\n  }\n\n  function getDecimals() public view returns (uint8) {\n    uint8 decimals = priceFeed.decimals();\n    return decimals;\n  }\n}\n",
  "sourcePath": "/home/hayek/proyectos_personales/marketplace_solidity/src/contracts/Price.sol",
  "compiler": {
    "name": "solc",
    "version": "0.8.13+commit.abaa5c0e.Emscripten.clang"
  },
  "schemaVersion": "3.4.4",
  "updatedAt": "2022-08-05T21:49:44.521Z",
  "devdoc": {
    "kind": "dev",
    "methods": {},
    "version": 1
  },
  "userdoc": {
    "kind": "user",
    "methods": {},
    "version": 1
  }
}