{
  "contractName": "Products",
  "abi": [
    {
      "anonymous": false,
      "inputs": [
        {
          "indexed": true,
          "internalType": "address",
          "name": "previousOwner",
          "type": "address"
        },
        {
          "indexed": true,
          "internalType": "address",
          "name": "newOwner",
          "type": "address"
        }
      ],
      "name": "OwnershipTransferred",
      "type": "event"
    },
    {
      "inputs": [],
      "name": "isOwner",
      "outputs": [
        {
          "internalType": "bool",
          "name": "",
          "type": "bool"
        }
      ],
      "stateMutability": "view",
      "type": "function",
      "constant": true
    },
    {
      "inputs": [],
      "name": "owner",
      "outputs": [
        {
          "internalType": "address",
          "name": "",
          "type": "address"
        }
      ],
      "stateMutability": "view",
      "type": "function",
      "constant": true
    },
    {
      "inputs": [
        {
          "internalType": "uint256",
          "name": "",
          "type": "uint256"
        }
      ],
      "name": "products",
      "outputs": [
        {
          "internalType": "uint256",
          "name": "id",
          "type": "uint256"
        },
        {
          "internalType": "uint256",
          "name": "id_shop",
          "type": "uint256"
        },
        {
          "internalType": "uint8",
          "name": "status",
          "type": "uint8"
        },
        {
          "internalType": "string",
          "name": "title",
          "type": "string"
        },
        {
          "internalType": "string",
          "name": "description",
          "type": "string"
        },
        {
          "internalType": "string",
          "name": "images",
          "type": "string"
        },
        {
          "internalType": "string",
          "name": "combinations",
          "type": "string"
        },
        {
          "internalType": "uint256",
          "name": "created_at",
          "type": "uint256"
        },
        {
          "internalType": "uint256",
          "name": "updated_at",
          "type": "uint256"
        }
      ],
      "stateMutability": "view",
      "type": "function",
      "constant": true
    },
    {
      "inputs": [],
      "name": "renounceOwnership",
      "outputs": [],
      "stateMutability": "nonpayable",
      "type": "function"
    },
    {
      "inputs": [
        {
          "internalType": "address",
          "name": "newOwner",
          "type": "address"
        }
      ],
      "name": "transferOwnership",
      "outputs": [],
      "stateMutability": "nonpayable",
      "type": "function"
    },
    {
      "inputs": [],
      "name": "getProducts",
      "outputs": [
        {
          "components": [
            {
              "internalType": "uint256",
              "name": "id",
              "type": "uint256"
            },
            {
              "internalType": "uint256",
              "name": "id_shop",
              "type": "uint256"
            },
            {
              "internalType": "uint8",
              "name": "status",
              "type": "uint8"
            },
            {
              "internalType": "string",
              "name": "title",
              "type": "string"
            },
            {
              "internalType": "string",
              "name": "description",
              "type": "string"
            },
            {
              "internalType": "string",
              "name": "images",
              "type": "string"
            },
            {
              "internalType": "string",
              "name": "combinations",
              "type": "string"
            },
            {
              "internalType": "uint256",
              "name": "created_at",
              "type": "uint256"
            },
            {
              "internalType": "uint256",
              "name": "updated_at",
              "type": "uint256"
            }
          ],
          "internalType": "struct Products.Product[]",
          "name": "",
          "type": "tuple[]"
        }
      ],
      "stateMutability": "view",
      "type": "function",
      "constant": true
    },
    {
      "inputs": [
        {
          "internalType": "uint256",
          "name": "_id_shop",
          "type": "uint256"
        },
        {
          "internalType": "uint8",
          "name": "_status",
          "type": "uint8"
        },
        {
          "internalType": "string",
          "name": "_description",
          "type": "string"
        },
        {
          "internalType": "string",
          "name": "_title",
          "type": "string"
        },
        {
          "internalType": "string",
          "name": "_images",
          "type": "string"
        },
        {
          "internalType": "string",
          "name": "_combinations",
          "type": "string"
        }
      ],
      "name": "createProduct",
      "outputs": [],
      "stateMutability": "nonpayable",
      "type": "function"
    },
    {
      "inputs": [
        {
          "internalType": "uint256",
          "name": "_id",
          "type": "uint256"
        }
      ],
      "name": "getProductsByShop",
      "outputs": [
        {
          "components": [
            {
              "internalType": "uint256",
              "name": "id",
              "type": "uint256"
            },
            {
              "internalType": "uint256",
              "name": "id_shop",
              "type": "uint256"
            },
            {
              "internalType": "uint8",
              "name": "status",
              "type": "uint8"
            },
            {
              "internalType": "string",
              "name": "title",
              "type": "string"
            },
            {
              "internalType": "string",
              "name": "description",
              "type": "string"
            },
            {
              "internalType": "string",
              "name": "images",
              "type": "string"
            },
            {
              "internalType": "string",
              "name": "combinations",
              "type": "string"
            },
            {
              "internalType": "uint256",
              "name": "created_at",
              "type": "uint256"
            },
            {
              "internalType": "uint256",
              "name": "updated_at",
              "type": "uint256"
            }
          ],
          "internalType": "struct Products.Product[]",
          "name": "",
          "type": "tuple[]"
        }
      ],
      "stateMutability": "view",
      "type": "function",
      "constant": true
    }
  ],
  "bytecode": "0x608060405234801561001057600080fd5b50336000806101000a81548173ffffffffffffffffffffffffffffffffffffffff021916908373ffffffffffffffffffffffffffffffffffffffff16021790555060008054906101000a900473ffffffffffffffffffffffffffffffffffffffff1673ffffffffffffffffffffffffffffffffffffffff16600073ffffffffffffffffffffffffffffffffffffffff167f8be0079c531659141344cd1fd0a4f28419497f9722a3daafe3b4186f6b6457e060405160405180910390a36117da806100db6000396000f3fe608060405234801561001057600080fd5b50600436106100885760003560e01c80638f32d59b1161005b5780638f32d59b1461011d578063c29b2f201461013b578063dc11e26e14610159578063f2fde38b1461017557610088565b8063636bf8591461008d578063715018a6146100bd5780637acc0b20146100c75780638da5cb5b146100ff575b600080fd5b6100a760048036038101906100a29190610f95565b610191565b6040516100b49190611222565b60405180910390f35b6100c5610533565b005b6100e160048036038101906100dc9190610f95565b610602565b6040516100f6999897969594939291906112ac565b60405180910390f35b61010761088d565b6040516101149190611396565b60405180910390f35b6101256108b6565b60405161013291906113cc565b60405180910390f35b61014361090d565b6040516101509190611222565b60405180910390f35b610173600480360381019061016e9190611548565b610bfa565b005b61018f600480360381019061018a9190611671565b610d46565b005b6060600060018054905067ffffffffffffffff8111156101b4576101b361141d565b5b6040519080825280602002602001820160405280156101ed57816020015b6101da610e59565b8152602001906001900390816101d25790505b5090506000805b60018054905081101561052857600181815481106102155761021461169e565b5b906000526020600020906009020160010154850361051557600181815481106102415761024061169e565b5b90600052602060002090600902016040518061012001604052908160008201548152602001600182015481526020016002820160009054906101000a900460ff1660ff1660ff16815260200160038201805461029c906116fc565b80601f01602080910402602001604051908101604052809291908181526020018280546102c8906116fc565b80156103155780601f106102ea57610100808354040283529160200191610315565b820191906000526020600020905b8154815290600101906020018083116102f857829003601f168201915b5050505050815260200160048201805461032e906116fc565b80601f016020809104026020016040519081016040528092919081815260200182805461035a906116fc565b80156103a75780601f1061037c576101008083540402835291602001916103a7565b820191906000526020600020905b81548152906001019060200180831161038a57829003601f168201915b505050505081526020016005820180546103c0906116fc565b80601f01602080910402602001604051908101604052809291908181526020018280546103ec906116fc565b80156104395780601f1061040e57610100808354040283529160200191610439565b820191906000526020600020905b81548152906001019060200180831161041c57829003601f168201915b50505050508152602001600682018054610452906116fc565b80601f016020809104026020016040519081016040528092919081815260200182805461047e906116fc565b80156104cb5780601f106104a0576101008083540402835291602001916104cb565b820191906000526020600020905b8154815290600101906020018083116104ae57829003601f168201915b50505050508152602001600782015481526020016008820154815250508383815181106104fb576104fa61169e565b5b602002602001018190525081806105119061175c565b9250505b80806105209061175c565b9150506101f4565b508192505050919050565b61053b6108b6565b61054457600080fd5b600073ffffffffffffffffffffffffffffffffffffffff1660008054906101000a900473ffffffffffffffffffffffffffffffffffffffff1673ffffffffffffffffffffffffffffffffffffffff167f8be0079c531659141344cd1fd0a4f28419497f9722a3daafe3b4186f6b6457e060405160405180910390a360008060006101000a81548173ffffffffffffffffffffffffffffffffffffffff021916908373ffffffffffffffffffffffffffffffffffffffff160217905550565b6001818154811061061257600080fd5b90600052602060002090600902016000915090508060000154908060010154908060020160009054906101000a900460ff1690806003018054610654906116fc565b80601f0160208091040260200160405190810160405280929190818152602001828054610680906116fc565b80156106cd5780601f106106a2576101008083540402835291602001916106cd565b820191906000526020600020905b8154815290600101906020018083116106b057829003601f168201915b5050505050908060040180546106e2906116fc565b80601f016020809104026020016040519081016040528092919081815260200182805461070e906116fc565b801561075b5780601f106107305761010080835404028352916020019161075b565b820191906000526020600020905b81548152906001019060200180831161073e57829003601f168201915b505050505090806005018054610770906116fc565b80601f016020809104026020016040519081016040528092919081815260200182805461079c906116fc565b80156107e95780601f106107be576101008083540402835291602001916107e9565b820191906000526020600020905b8154815290600101906020018083116107cc57829003601f168201915b5050505050908060060180546107fe906116fc565b80601f016020809104026020016040519081016040528092919081815260200182805461082a906116fc565b80156108775780601f1061084c57610100808354040283529160200191610877565b820191906000526020600020905b81548152906001019060200180831161085a57829003601f168201915b5050505050908060070154908060080154905089565b60008060009054906101000a900473ffffffffffffffffffffffffffffffffffffffff16905090565b60008060009054906101000a900473ffffffffffffffffffffffffffffffffffffffff1673ffffffffffffffffffffffffffffffffffffffff163373ffffffffffffffffffffffffffffffffffffffff1614905090565b60606001805480602002602001604051908101604052809291908181526020016000905b82821015610bf157838290600052602060002090600902016040518061012001604052908160008201548152602001600182015481526020016002820160009054906101000a900460ff1660ff1660ff168152602001600382018054610996906116fc565b80601f01602080910402602001604051908101604052809291908181526020018280546109c2906116fc565b8015610a0f5780601f106109e457610100808354040283529160200191610a0f565b820191906000526020600020905b8154815290600101906020018083116109f257829003601f168201915b50505050508152602001600482018054610a28906116fc565b80601f0160208091040260200160405190810160405280929190818152602001828054610a54906116fc565b8015610aa15780601f10610a7657610100808354040283529160200191610aa1565b820191906000526020600020905b815481529060010190602001808311610a8457829003601f168201915b50505050508152602001600582018054610aba906116fc565b80601f0160208091040260200160405190810160405280929190818152602001828054610ae6906116fc565b8015610b335780601f10610b0857610100808354040283529160200191610b33565b820191906000526020600020905b815481529060010190602001808311610b1657829003601f168201915b50505050508152602001600682018054610b4c906116fc565b80601f0160208091040260200160405190810160405280929190818152602001828054610b78906116fc565b8015610bc55780601f10610b9a57610100808354040283529160200191610bc5565b820191906000526020600020905b815481529060010190602001808311610ba857829003601f168201915b505050505081526020016007820154815260200160088201548152505081526020019060010190610931565b50505050905090565b610c026108b6565b610c0b57600080fd5b600160405180610120016040528060018054905081526020018881526020018760ff168152602001868152602001858152602001848152602001838152602001428152602001428152509080600181540180825580915050600190039060005260206000209060090201600090919091909150600082015181600001556020820151816001015560408201518160020160006101000a81548160ff021916908360ff1602179055506060820151816003019080519060200190610ccf929190610ea8565b506080820151816004019080519060200190610cec929190610ea8565b5060a0820151816005019080519060200190610d09929190610ea8565b5060c0820151816006019080519060200190610d26929190610ea8565b5060e0820151816007015561010082015181600801555050505050505050565b610d4e6108b6565b610d5757600080fd5b610d6081610d63565b50565b600073ffffffffffffffffffffffffffffffffffffffff168173ffffffffffffffffffffffffffffffffffffffff1603610d9c57600080fd5b8073ffffffffffffffffffffffffffffffffffffffff1660008054906101000a900473ffffffffffffffffffffffffffffffffffffffff1673ffffffffffffffffffffffffffffffffffffffff167f8be0079c531659141344cd1fd0a4f28419497f9722a3daafe3b4186f6b6457e060405160405180910390a3806000806101000a81548173ffffffffffffffffffffffffffffffffffffffff021916908373ffffffffffffffffffffffffffffffffffffffff16021790555050565b6040518061012001604052806000815260200160008152602001600060ff1681526020016060815260200160608152602001606081526020016060815260200160008152602001600081525090565b828054610eb4906116fc565b90600052602060002090601f016020900481019282610ed65760008555610f1d565b82601f10610eef57805160ff1916838001178555610f1d565b82800160010185558215610f1d579182015b82811115610f1c578251825591602001919060010190610f01565b5b509050610f2a9190610f2e565b5090565b5b80821115610f47576000816000905550600101610f2f565b5090565b6000604051905090565b600080fd5b600080fd5b6000819050919050565b610f7281610f5f565b8114610f7d57600080fd5b50565b600081359050610f8f81610f69565b92915050565b600060208284031215610fab57610faa610f55565b5b6000610fb984828501610f80565b91505092915050565b600081519050919050565b600082825260208201905092915050565b6000819050602082019050919050565b610ff781610f5f565b82525050565b600060ff82169050919050565b61101381610ffd565b82525050565b600081519050919050565b600082825260208201905092915050565b60005b83811015611053578082015181840152602081019050611038565b83811115611062576000848401525b50505050565b6000601f19601f8301169050919050565b600061108482611019565b61108e8185611024565b935061109e818560208601611035565b6110a781611068565b840191505092915050565b6000610120830160008301516110cb6000860182610fee565b5060208301516110de6020860182610fee565b5060408301516110f1604086018261100a565b50606083015184820360608601526111098282611079565b915050608083015184820360808601526111238282611079565b91505060a083015184820360a086015261113d8282611079565b91505060c083015184820360c08601526111578282611079565b91505060e083015161116c60e0860182610fee565b50610100830151611181610100860182610fee565b508091505092915050565b600061119883836110b2565b905092915050565b6000602082019050919050565b60006111b882610fc2565b6111c28185610fcd565b9350836020820285016111d485610fde565b8060005b8581101561121057848403895281516111f1858261118c565b94506111fc836111a0565b925060208a019950506001810190506111d8565b50829750879550505050505092915050565b6000602082019050818103600083015261123c81846111ad565b905092915050565b61124d81610f5f565b82525050565b61125c81610ffd565b82525050565b600082825260208201905092915050565b600061127e82611019565b6112888185611262565b9350611298818560208601611035565b6112a181611068565b840191505092915050565b6000610120820190506112c2600083018c611244565b6112cf602083018b611244565b6112dc604083018a611253565b81810360608301526112ee8189611273565b905081810360808301526113028188611273565b905081810360a08301526113168187611273565b905081810360c083015261132a8186611273565b905061133960e0830185611244565b611347610100830184611244565b9a9950505050505050505050565b600073ffffffffffffffffffffffffffffffffffffffff82169050919050565b600061138082611355565b9050919050565b61139081611375565b82525050565b60006020820190506113ab6000830184611387565b92915050565b60008115159050919050565b6113c6816113b1565b82525050565b60006020820190506113e160008301846113bd565b92915050565b6113f081610ffd565b81146113fb57600080fd5b50565b60008135905061140d816113e7565b92915050565b600080fd5b600080fd5b7f4e487b7100000000000000000000000000000000000000000000000000000000600052604160045260246000fd5b61145582611068565b810181811067ffffffffffffffff821117156114745761147361141d565b5b80604052505050565b6000611487610f4b565b9050611493828261144c565b919050565b600067ffffffffffffffff8211156114b3576114b261141d565b5b6114bc82611068565b9050602081019050919050565b82818337600083830152505050565b60006114eb6114e684611498565b61147d565b90508281526020810184848401111561150757611506611418565b5b6115128482856114c9565b509392505050565b600082601f83011261152f5761152e611413565b5b813561153f8482602086016114d8565b91505092915050565b60008060008060008060c0878903121561156557611564610f55565b5b600061157389828a01610f80565b965050602061158489828a016113fe565b955050604087013567ffffffffffffffff8111156115a5576115a4610f5a565b5b6115b189828a0161151a565b945050606087013567ffffffffffffffff8111156115d2576115d1610f5a565b5b6115de89828a0161151a565b935050608087013567ffffffffffffffff8111156115ff576115fe610f5a565b5b61160b89828a0161151a565b92505060a087013567ffffffffffffffff81111561162c5761162b610f5a565b5b61163889828a0161151a565b9150509295509295509295565b61164e81611375565b811461165957600080fd5b50565b60008135905061166b81611645565b92915050565b60006020828403121561168757611686610f55565b5b60006116958482850161165c565b91505092915050565b7f4e487b7100000000000000000000000000000000000000000000000000000000600052603260045260246000fd5b7f4e487b7100000000000000000000000000000000000000000000000000000000600052602260045260246000fd5b6000600282049050600182168061171457607f821691505b602082108103611727576117266116cd565b5b50919050565b7f4e487b7100000000000000000000000000000000000000000000000000000000600052601160045260246000fd5b600061176782610f5f565b91507fffffffffffffffffffffffffffffffffffffffffffffffffffffffffffffffff82036117995761179861172d565b5b60018201905091905056fea26469706673582212207ecd5d1dee3cf12a54619a3d19e4162865d3f3126d188860ddb31888ad62aafe64736f6c634300080d0033",
  "immutableReferences": {},
  "source": "pragma solidity ^0.8.0;\n\nimport \"./ownable.sol\";\n\ncontract Products is Ownable {\n  struct Product {\n    uint256 id;\n    uint256 id_shop;\n    uint8 status;\n    string title;\n    string description;\n    string images;\n    string combinations;\n    uint256 created_at;\n    uint256 updated_at;\n  }\n\n  Product[] public products;\n\n  function getProducts() public view returns(Product[] memory){\n    return products;\n  }\n\n  function createProduct(uint256 _id_shop, uint8 _status, string memory _description, string memory _title, string memory _images, string memory _combinations) external onlyOwner {\n    products.push(Product(products.length, _id_shop, _status, _description, _title, _images, _combinations, block.timestamp, block.timestamp));\n  }  \n\n  function getProductsByShop(uint256 _id) public view returns(Product[] memory) {\n    Product[] memory result = new Product[](products.length);\n    uint counter = 0;\n    for (uint i = 0; i < products.length; i++) {\n      if (_id == products[i].id_shop) {\n        result[counter] = products[i];\n        counter++;\n      }\n    }\n\n    return result;\n  }\n}",
  "sourcePath": "/home/hayek/proyectos_personales/marketplace_solidity/src/contracts/Products.sol",
  "compiler": {
    "name": "solc",
    "version": "0.8.13+commit.abaa5c0e.Emscripten.clang"
  },
  "schemaVersion": "3.4.4",
  "updatedAt": "2022-08-06T15:11:56.539Z",
  "networkType": "ethereum",
  "devdoc": {
    "kind": "dev",
    "methods": {
      "isOwner()": {
        "returns": {
          "_0": "true if `msg.sender` is the owner of the contract."
        }
      },
      "owner()": {
        "returns": {
          "_0": "the address of the owner."
        }
      },
      "renounceOwnership()": {
        "details": "Allows the current owner to relinquish control of the contract."
      },
      "transferOwnership(address)": {
        "details": "Allows the current owner to transfer control of the contract to a newOwner.",
        "params": {
          "newOwner": "The address to transfer ownership to."
        }
      }
    },
    "version": 1
  },
  "userdoc": {
    "kind": "user",
    "methods": {
      "renounceOwnership()": {
        "notice": "Renouncing to ownership will leave the contract without an owner. It will not be possible to call the functions with the `onlyOwner` modifier anymore."
      }
    },
    "version": 1
  }
}